{
  "_format": "hh-sol-artifact-1",
  "contractName": "Billboards",
  "sourceName": "contracts/Billboards.sol",
  "abi": [
    {
      "inputs": [],
      "stateMutability": "payable",
      "type": "constructor"
    },
    {
      "anonymous": false,
      "inputs": [
        {
          "indexed": false,
          "internalType": "address",
          "name": "creator",
          "type": "address"
        },
        {
          "indexed": false,
          "internalType": "uint256",
          "name": "startingPrice",
          "type": "uint256"
        }
      ],
      "name": "Creation",
      "type": "event"
    },
    {
      "anonymous": false,
      "inputs": [
        {
          "indexed": false,
          "internalType": "address",
          "name": "from",
          "type": "address"
        },
        {
          "indexed": false,
          "internalType": "address",
          "name": "receiver",
          "type": "address"
        },
        {
          "indexed": false,
          "internalType": "uint256",
          "name": "billboardID",
          "type": "uint256"
        },
        {
          "indexed": false,
          "internalType": "uint256",
          "name": "amount",
          "type": "uint256"
        },
        {
          "indexed": false,
          "internalType": "string",
          "name": "message",
          "type": "string"
        },
        {
          "indexed": false,
          "internalType": "uint256",
          "name": "timestamp",
          "type": "uint256"
        }
      ],
      "name": "Transaction",
      "type": "event"
    },
    {
      "inputs": [
        {
          "internalType": "uint256",
          "name": "",
          "type": "uint256"
        }
      ],
      "name": "billboards",
      "outputs": [
        {
          "internalType": "uint256",
          "name": "purchasePrice",
          "type": "uint256"
        },
        {
          "internalType": "address",
          "name": "owner",
          "type": "address"
        },
        {
          "internalType": "string",
          "name": "message",
          "type": "string"
        },
        {
          "internalType": "uint256",
          "name": "timestamp",
          "type": "uint256"
        }
      ],
      "stateMutability": "view",
      "type": "function"
    },
    {
      "inputs": [
        {
          "internalType": "uint256",
          "name": "_newPrice",
          "type": "uint256"
        },
        {
          "internalType": "string",
          "name": "_message",
          "type": "string"
        }
      ],
      "name": "buyBoard",
      "outputs": [],
      "stateMutability": "payable",
      "type": "function"
    },
    {
      "inputs": [],
      "name": "getBillboardCount",
      "outputs": [
        {
          "internalType": "uint256",
          "name": "",
          "type": "uint256"
        }
      ],
      "stateMutability": "view",
      "type": "function"
    },
    {
      "inputs": [],
      "name": "getCurrOwner",
      "outputs": [
        {
          "internalType": "address",
          "name": "",
          "type": "address"
        }
      ],
      "stateMutability": "view",
      "type": "function"
    },
    {
      "inputs": [],
      "name": "getCurrPrice",
      "outputs": [
        {
          "internalType": "uint256",
          "name": "",
          "type": "uint256"
        }
      ],
      "stateMutability": "view",
      "type": "function"
    },
    {
      "inputs": [],
      "name": "getFounder",
      "outputs": [
        {
          "internalType": "address",
          "name": "",
          "type": "address"
        }
      ],
      "stateMutability": "view",
      "type": "function"
    },
    {
      "stateMutability": "payable",
      "type": "receive"
    }
  ],
  "bytecode": "0x608060405233600260006101000a81548173ffffffffffffffffffffffffffffffffffffffff021916908373ffffffffffffffffffffffffffffffffffffffff16021790555033600360006101000a81548173ffffffffffffffffffffffffffffffffffffffff021916908373ffffffffffffffffffffffffffffffffffffffff16021790555066062add573cb80060008190555060006001819055507fc07d6fc5db170f8be7da51bea7bf502fb674192c618536ee210555994694b0b7600260009054906101000a900473ffffffffffffffffffffffffffffffffffffffff166000546040516100f192919061011c565b60405180910390a1610181565b61010781610145565b82525050565b61011681610177565b82525050565b600060408201905061013160008301856100fe565b61013e602083018461010d565b9392505050565b600061015082610157565b9050919050565b600073ffffffffffffffffffffffffffffffffffffffff82169050919050565b6000819050919050565b610b86806101906000396000f3fe6080604052600436106100595760003560e01c80632128e0ac1461006557806331d14a2a146100a557806347fe810f146100c157806384a7dd37146100ec578063946bcc3014610117578063ffac86541461014257610060565b3661006057005b600080fd5b34801561007157600080fd5b5061008c60048036038101906100879190610688565b61016d565b60405161009c9493929190610898565b60405180910390f35b6100bf60048036038101906100ba91906106b1565b610255565b005b3480156100cd57600080fd5b506100d6610355565b6040516100e3919061087d565b60405180910390f35b3480156100f857600080fd5b5061010161035e565b60405161010e91906107da565b60405180910390f35b34801561012357600080fd5b5061012c610388565b60405161013991906107da565b60405180910390f35b34801561014e57600080fd5b506101576103b2565b604051610164919061087d565b60405180910390f35b6004818154811061017d57600080fd5b90600052602060002090600402016000915090508060000154908060010160009054906101000a900473ffffffffffffffffffffffffffffffffffffffff16908060020180546101cc90610a20565b80601f01602080910402602001604051908101604052809291908181526020018280546101f890610a20565b80156102455780601f1061021a57610100808354040283529160200191610245565b820191906000526020600020905b81548152906001019060200180831161022857829003601f168201915b5050505050908060030154905084565b600054821180156102665750813410155b61026f57600080fd5b600080600260009054906101000a900473ffffffffffffffffffffffffffffffffffffffff1673ffffffffffffffffffffffffffffffffffffffff16622dc6c0856040516102bc906107c5565b600060405180830381858888f193505050503d80600081146102fa576040519150601f19603f3d011682016040523d82523d6000602084013e6102ff565b606091505b509150915081610344576040517f08c379a000000000000000000000000000000000000000000000000000000000815260040161033b9061085d565b60405180910390fd5b61034f3385856103bc565b50505050565b60008054905090565b6000600360009054906101000a900473ffffffffffffffffffffffffffffffffffffffff16905090565b6000600260009054906101000a900473ffffffffffffffffffffffffffffffffffffffff16905090565b6000600154905090565b600160008154809291906103cf90610a52565b9190505550600460405180608001604052808481526020018573ffffffffffffffffffffffffffffffffffffffff1681526020018381526020014281525090806001815401808255809150506001900390600052602060002090600402016000909190919091506000820151816000015560208201518160010160006101000a81548173ffffffffffffffffffffffffffffffffffffffff021916908373ffffffffffffffffffffffffffffffffffffffff16021790555060408201518160020190805190602001906104a3929190610568565b506060820151816003015550506000600154905083600360006101000a81548173ffffffffffffffffffffffffffffffffffffffff021916908373ffffffffffffffffffffffffffffffffffffffff160217905550826000819055507f2268b72d14cff4a9e5987be7102c74660f2358ea026e71254da29dd28d26c3fc33600260009054906101000a900473ffffffffffffffffffffffffffffffffffffffff168386864260405161055a969594939291906107f5565b60405180910390a150505050565b82805461057490610a20565b90600052602060002090601f01602090048101928261059657600085556105dd565b82601f106105af57805160ff19168380011785556105dd565b828001600101855582156105dd579182015b828111156105dc5782518255916020019190600101906105c1565b5b5090506105ea91906105ee565b5090565b5b808211156106075760008160009055506001016105ef565b5090565b600061061e61061984610915565b6108e4565b90508281526020810184848401111561063657600080fd5b6106418482856109de565b509392505050565b600082601f83011261065a57600080fd5b813561066a84826020860161060b565b91505092915050565b60008135905061068281610b39565b92915050565b60006020828403121561069a57600080fd5b60006106a884828501610673565b91505092915050565b600080604083850312156106c457600080fd5b60006106d285828601610673565b925050602083013567ffffffffffffffff8111156106ef57600080fd5b6106fb85828601610649565b9150509250929050565b61070e816109a8565b82525050565b61071d8161096c565b82525050565b600061072e82610945565b610738818561095b565b93506107488185602086016109ed565b61075181610b28565b840191505092915050565b6000610769600b8361095b565b91507f43616c6c206661696c65640000000000000000000000000000000000000000006000830152602082019050919050565b60006107a9600083610950565b9150600082019050919050565b6107bf8161099e565b82525050565b60006107d08261079c565b9150819050919050565b60006020820190506107ef6000830184610714565b92915050565b600060c08201905061080a6000830189610714565b6108176020830188610705565b61082460408301876107b6565b61083160608301866107b6565b81810360808301526108438185610723565b905061085260a08301846107b6565b979650505050505050565b600060208201905081810360008301526108768161075c565b9050919050565b600060208201905061089260008301846107b6565b92915050565b60006080820190506108ad60008301876107b6565b6108ba6020830186610714565b81810360408301526108cc8185610723565b90506108db60608301846107b6565b95945050505050565b6000604051905081810181811067ffffffffffffffff8211171561090b5761090a610af9565b5b8060405250919050565b600067ffffffffffffffff8211156109305761092f610af9565b5b601f19601f8301169050602081019050919050565b600081519050919050565b600081905092915050565b600082825260208201905092915050565b60006109778261097e565b9050919050565b600073ffffffffffffffffffffffffffffffffffffffff82169050919050565b6000819050919050565b60006109b3826109ba565b9050919050565b60006109c5826109cc565b9050919050565b60006109d78261097e565b9050919050565b82818337600083830152505050565b60005b83811015610a0b5780820151818401526020810190506109f0565b83811115610a1a576000848401525b50505050565b60006002820490506001821680610a3857607f821691505b60208210811415610a4c57610a4b610aca565b5b50919050565b6000610a5d8261099e565b91507fffffffffffffffffffffffffffffffffffffffffffffffffffffffffffffffff821415610a9057610a8f610a9b565b5b600182019050919050565b7f4e487b7100000000000000000000000000000000000000000000000000000000600052601160045260246000fd5b7f4e487b7100000000000000000000000000000000000000000000000000000000600052602260045260246000fd5b7f4e487b7100000000000000000000000000000000000000000000000000000000600052604160045260246000fd5b6000601f19601f8301169050919050565b610b428161099e565b8114610b4d57600080fd5b5056fea26469706673582212202c8fed19c7af26af8acd8219a53ac762b3d3931454cf5134c871bfdb51edcd3564736f6c63430008000033",
  "linkReferences": {},
  "deployedLinkReferences": {}
}